:100000000C9434000C9451000C9451000C94580042
:100010000C9451000C9451000C9451000C9451001C
:100020000C9451000C9451000C9451000C9451000C
:100030000C9451000C9451000C9451000C945100FC
:100040000C94AE000C9451000C9451000C9451008F
:100050000C9451000C9451000C9451000C945100DC
:100060000C9451000C94510011241FBECFEFD8E026
:10007000DEBFCDBF11E0A0E0B1E0ECE9F2E002C0EC
:1000800005900D92A430B107D9F721E0A4E0B1E0CA
:1000900001C01D92AD30B207E1F70E9420010C941F
:1000A0004C010C94000088B190E2892788B908952A
:1000B0001F921FB61F9211242F933F934F935F936C
:1000C0008F939F9383B1847080930A0120910601DE
:1000D000309107014091040150910501241B350B1B
:1000E0002B303105B0F090910901891730F48091DF
:1000F00008018823C1F08130E9F080910A018093E2
:100100000901809106019091070190930501809368
:1001100004019F918F915F914F913F912F911F907B
:100120001FBE1F90189510920201459881E08093A0
:100130000801E3CF8093020110920801DECF809185
:1001400006019091070108958091060190910701A1
:100150000196909307018093060108951F920F92D4
:100160000FB60F9211242F933F934F935F936F938A
:100170007F938F939F93AF93BF93EF93FF9382EB04
:1001800086BD0E94A40080910201882361F08091C5
:100190000001909101018A3F910560F501969093CD
:1001A0000101809300018091880090918900803D39
:1001B000974029F581E090E090930C0180930B012A
:1001C0008091880090918900019790938900809395
:1001D0008800FF91EF91BF91AF919F918F917F9197
:1001E0006F915F914F913F912F910F900FBE0F90A4
:1001F0001F9018950E94530081E090E0D0CF80912D
:10020000880090918900892B51F410920C01109272
:100210000B0180918800909189000196D6CF809142
:100220000B0190910C01892BA1F3CACF81E080933F
:10023000020108951092020108958091020108952B
:100240003D9A219A229818B884E085BD82EB86BD3C
:1002500081E080936E0082EA809380008AE180933F
:10026000810080ED97E090938700809386008091D5
:10027000680081608093680080916B008460809347
:100280006B002FE786E998E9215080409040E1F724
:0C02900000C000007894FFCFF894FFCF6E
:04029C00010001005C
:00000001FF
